:020000040800F2
:1000000000000120990100082D0200082D020008BF
:100010002D0200082D0200082D020008000000003B
:100020000000000000000000000000002D02000899
:100030002D020008000000002D0200082D0200081B
:100040002D0200082D0200082D0200082D020008D4
:100050002D0200082D0200082D0200082D020008C4
:100060002D0200082D0200082D0200082D020008B4
:100070002D0200082D0200082D0200082D020008A4
:100080002D0200082D0200082D02000800000000CB
:100090000000000000000000000000000000000060
:1000A0002D0200082D0200082D0200082D02000874
:1000B0002D0200082D0200082D0200082D02000864
:1000C0002D0200082D0200082D0200082D02000854
:1000D0002D0200082D0200082D0200082D02000844
:1000E000000000002D0200082D0200082D0200086B
:1000F0000000000000000000000000000000000000
:100100002D020008000000002D0200082D0200084A
:100110002D020008000000000000000000000000A8
:10012000000000002D0200082D0200082D0200082A
:100130002D0200082D020008000000000000000051
:1001400000000000000000000000000000000000AF
:100150002D0200082D0200082D0200082D020008C3
:100160002D0200082D0200082D02000800000000EA
:10017000000000000000000000000000000000007F
:1001800000000000000000002D0200080000000038
:08019000000000002D02000830
:1001980080B586B000AF00237B6100233B6100235C
:1001A8007B601B4B7B611B4B3B611B4A194BD31A72
:1001B8009B107B600023FB600AE07A69131D7B615A
:1001C8003B69191D396112681A60FB680133FB60CD
:1001D800FA687B689A42F0D3104B3B61104A0F4B88
:1001E800D31A9B107B600023BB6007E03B691A1D94
:1001F8003A6100221A60BB680133BB60BA687B6849
:100208009A42F3D300F068FE00BF1837BD4680BDA0
:10021800F412000800000020000000200000002068
:0C0228000500002080B400AFFEE700BF1E
:1002340090B583B000AF0446084611461A462346DB
:10024400FB710346BB710B467B7113463B71FB7913
:10025400022B20D8BB790F2B1DD87B79032B1AD8FE
:100264003B79042B17D83B7E022B14D87A79B979C1
:10027400FB79184600F013F83A79B979FB791846F6
:1002840000F09CF97B79012B05D13A7EB979FB7991
:10029400184600F035FB00BF0C37BD4690BD80B456
:1002A40083B000AF0346FB710B46BB7113467B71F1
:1002B4007B79032B00F27481FB79022B00F27081AD
:1002C400BB790F2B00F275817B79032B00F27081CF
:1002D40001A252F823F000BF9B030008ED020008BE
:1002E4004F040008FD040008FB79022B38D0022BD0
:1002F4004FDC002B02D0012B19D04AE0A94B1B681C
:10030400BA795200012101FA02F21146A54A0B43BF
:100314001360A44B1B68BA7952000132012101FA1F
:1003240002F2D24311469F4A0B40136032E09E4BC7
:100334001B68BA795200012101FA02F211469A4A65
:100344000B431360984B1B68BA79520001320121A8
:1003540001FA02F2D2431146934A0B40136019E0AA
:10036400924B1B68BA795200012101FA02F211463C
:100374008E4A0B4313608D4B1B68BA7952000132CD
:10038400012101FA02F2D2431146884A0B4013605C
:1003940000E000BF0DE1FB79022B3AD0022B52DCC6
:1003A400002B02D0012B1AD04DE07E4B1B68BA798A
:1003B4005200012101FA02F2D2431146794A0B405C
:1003C4001360784B1B68BA7952000132012101FA9B
:1003D40002F2D2431146734A0B40136034E0724B6D
:1003E4001B68BA795200012101FA02F2D243114684
:1003F4006D4A0B4013606C4B1B68BA795200013292
:10040400012101FA02F2D2431146674A0B401360FC
:100414001AE0664B1B68BA795200012101FA02F214
:10042400D2431146614A0B401360604B1B68BA7992
:1004340052000132012101FA02F2D24311465B4A11
:100444000B40136000E000BFB3E0FB79022B38D00F
:10045400022B4FDC002B02D0012B19D04AE0514B68
:100464001B68BA795200012101FA02F2D243114603
:100474004C4A0B4013604B4B1B68BA795200013253
:10048400012101FA02F21146464A0B43136032E09D
:10049400454B1B68BA795200012101FA02F2D2439A
:1004A4001146414A0B4013603F4B1B68BA79520016
:1004B4000132012101FA02F211463B4A0B43136057
:1004C40019E03A4B1B68BA795200012101FA02F291
:1004D400D2431146354A0B401360344B1B68BA793A
:1004E40052000132012101FA02F211462F4A0B4354
:1004F400136000E000BF5CE0FB79022B36D0022BD6
:100504004CDC002B02D0012B18D047E0254B1B6894
:10051400BA795200012101FA02F21146214A0B4331
:100524001360204B1B68BA7952000132012101FA91
:1005340002F211461B4A0B43136030E01A4B1B684E
:10054400BA795200012101FA02F21146164A0B430C
:100554001360154B1B68BA7952000132012101FA6C
:1005640002F21146104A0B43136018E00F4B1B684C
:10057400BA795200012101FA02F211460B4A0B43E7
:1005840013600A4B1B68BA7952000132012101FA47
:1005940002F21146054A0B43136000E000BF08E075
:1005A40000BF06E0000002400004024000080240D0
:1005B40000BF00BF0C37BD4680BC704780B483B019
:1005C40000AF0346FB710B46BB7113467B717B790D
:1005D400042B00F28A81FB79022B00F28681BB791D
:1005E4000F2B00F285817B79042B00F2808101A21C
:1005F40052F823F00D0600086D060008C70600082F
:100604007B07000829080008FB79022B1ED0022B67
:1006140028DC002B02D0012B0CD023E09F4B1B685D
:10062400BA79012101FA02F2D24311469B4A0B40E6
:10063400136018E09A4B1B68BA79012101FA02F29F
:10064400D2431146964A0B4013600CE0954B1B684D
:10065400BA79012101FA02F2D2431146914A0B40C0
:10066400136000E000BF43E1FB79022B1CD0022B96
:1006740025DC002B02D0012B0BD020E0874B1B681C
:10068400BA79012101FA02F21146844A0B4313603C
:1006940016E0834B1B68BA79012101FA02F2114674
:1006A4007F4A0B4313600BE07E4B1B68BA79012130
:1006B40001FA02F211467B4A0B43136000E000BFCB
:1006C40016E1FB79022B3AD0022B52DC002B02D02C
:1006D400012B1AD04DE0744B1B68BA7952000121EA
:1006E40001FA02F2D24311466F4A0B4013606E4B7B
:1006F4001B68BA7952000132012101FA02F2D24395
:100704001146694A0B40136034E0684B1B68BA79A0
:100714005200012101FA02F2D2431146634A0B400E
:100724001360624B1B68BA7952000132012101FA4D
:1007340002F2D24311465D4A0B4013601AE05C4B4F
:100744001B68BA795200012101FA02F2D243114620
:10075400574A0B401360564B1B68BA79520001325A
:10076400012101FA02F2D2431146514A0B401360AF
:1007740000E000BFBCE0FB79022B38D0022B4FDC39
:10078400002B02D0012B19D04AE0474B1B68BA79E1
:100794005200012101FA02F21146434A0B4313604D
:1007A400414B1B68BA7952000132012101FA02F26D
:1007B400D24311463C4A0B40136032E03B4B1B686A
:1007C400BA795200012101FA02F21146374A0B4369
:1007D4001360364B1B68BA7952000132012101FAC9
:1007E40002F2D2431146314A0B40136019E0304BF8
:1007F4001B68BA795200012101FA02F211462C4A0F
:100804000B4313602A4B1B68BA7952000132012151
:1008140001FA02F2D2431146254A0B40136000E06C
:1008240000BF65E0FB79022B44D0022B5BDC002B7C
:1008340002D0012B19D056E01B4B1B68BA79520029
:10084400012101FA02F2D2431146174A0B40136008
:10085400154B1B68BA7952000132012101FA02F2E8
:100864001146114A0B4313603EE0104B1B68BA79E2
:100874005200012101FA02F2D24311460B4A0B4005
:1008840013600A4B1B68BA7952000132012101FA44
:1008940002F21146054A0B43136025E004000240AE
:1008A40004040240040802400C0002400C0402400C
:1008B4000C080240114B1B68BA795200012101FA5D
:1008C40002F2D24311460D4A0B4013600B4B1B68D6
:1008D400BA7952000132012101FA02F21146074AA3
:1008E4000B43136000E000BF02E000BF00E000BF64
:1008F40000BF0C37BD4680BC704700BF0C080240E7
:1009040080B483B000AF0346FB710B46BB71134642
:100914007B717B79022B00F21C81FB79022B00F2A4
:100924001881BB790F2B00F217817B79022B00F021
:10093400B980022B00F30F81002B02D0012B5AD077
:1009440009E1FB79022B3AD0022B52DC002B02D0B6
:10095400012B1AD04DE0834B1B68BA795200012158
:1009640001FA02F2D24311467E4A0B4013607D4BDA
:100974001B68BA7952000132012101FA02F2D24312
:100984001146784A0B40136034E0774B1B68BA7900
:100994005200012101FA02F2D2431146724A0B407D
:1009A4001360714B1B68BA7952000132012101FABC
:1009B40002F2D24311466C4A0B4013601AE06B4BAF
:1009C4001B68BA795200012101FA02F2D24311469E
:1009D400664A0B401360654B1B68BA7952000132BA
:1009E400012101FA02F2D2431146604A0B4013601E
:1009F40000E000BFB0E0FB79022B38D0022B4FDCC3
:100A0400002B02D0012B19D04AE0564B1B68BA794F
:100A14005200012101FA02F21146524A0B431360BB
:100A2400504B1B68BA7952000132012101FA02F2DB
:100A3400D24311464B4A0B40136032E04A4B1B68C9
:100A4400BA795200012101FA02F21146464A0B43D7
:100A54001360454B1B68BA7952000132012101FA37
:100A640002F2D2431146404A0B40136019E03F4B57
:100A74001B68BA795200012101FA02F211463B4A7D
:100A84000B431360394B1B68BA79520001320121C0
:100A940001FA02F2D2431146344A0B40136000E0DB
:100AA40000BF59E0FB79022B38D0022B4FDC002B1E
:100AB40002D0012B19D04AE02A4B1B68BA795200A4
:100AC400012101FA02F2D2431146264A0B40136077
:100AD400244B1B68BA7952000132012101FA02F257
:100AE4001146204A0B43136032E01F4B1B68BA794E
:100AF4005200012101FA02F2D24311461A4A0B4074
:100B04001360194B1B68BA7952000132012101FAB2
:100B140002F21146144A0B43136019E0134B1B688D
:100B2400BA795200012101FA02F2D24311460F4A66
:100B34000B4013600D4B1B68BA795200013201213E
:100B440001FA02F21146094A0B43136000E000BFA8
:100B540002E000BF00E000BF00BF0C37BD4680BC10
:100B6400704700BF08000240080402400808024021
:100B740090B583B000AF0446084611461A46234692
:100B8400FB710346BB710B467B7113463B71FB79CA
:100B9400022B1DD8BB79032B1AD87B79042B17D8C9
:100BA4003B79022B14D8BA79FB791146184600F028
:100BB40013F87A79FB791146184600F029F8BB79C5
:100BC400012B05D13A79FB791146184600F03CF81F
:100BD40000BF0C37BD4690BD80B584B000AF03465E
:100BE4000A46FB711346BB710023FB7308E0BA7914
:100BF400F97BFB791846FFF752FBFB7B0133FB7350
:100C0400FB7B0F2BF3D900BF00BF1037BD4680BD5F
:100C140080B584B000AF03460A46FB711346BB712E
:100C24000023FB7308E0BA79F97BFB791846FFF7D8
:100C3400C5FCFB7B0133FB73FB7B0F2BF3D900BF9C
:100C440000BF1037BD4680BD80B584B000AF0346F9
:100C54000A46FB711346BB710023FB7308E0BA79A3
:100C6400F97BFB791846FFF74BFEFB7B0133FB73E3
:100C7400FB7B0F2BF3D900BF00BF1037BD4680BDEF
:100C840080B483B000AF0346FB710B46BB711346BF
:100C94007B717B79012B68D8FB79022B65D8BB79F2
:100CA4000F2B63D87B79002B02D0012B30D05DE071
:100CB400FB79022B1ED0022B28DC002B02D0012B47
:100CC4000CD023E02C4B1B68BA79012101FA02F203
:100CD400D2431146284A0B40136018E0274B1B6887
:100CE400BA79012101FA02F2D2431146234A0B4098
:100CF40013600CE0224B1B68BA79012101FA02F25D
:100D0400D24311461E4A0B40136000E000BF2DE0A1
:100D1400FB79022B1CD0022B25DC002B02D0012BEB
:100D24000BD020E0144B1B68BA79012101FA02F2BE
:100D34001146114A0B43136016E0104B1B68BA7935
:100D4400012101FA02F211460C4A0B4313600BE035
:100D54000B4B1B68BA79012101FA02F21146084AC9
:100D64000B43136000E000BF00E000BF00BF0C377E
:100D7400BD4680BC704700BF14000240140402400A
:100D84001408024080B483B000AF0346FB710B46E5
:100D9400BB7113467B717B79012B4AD8FB79022BFB
:100DA40047D8BB790F2B45D87B79002B02D0012B78
:100DB4001ED03FE0FB79022B12D0022B16DC002B55
:100DC40002D0012B06D011E0BB7901229A401C4BC2
:100DD4001A600CE0BB7901229A401A4B1A6006E0B3
:100DE400BB7901229A40184B1A6000E000BF21E051
:100DF400FB79022B14D0022B19DC002B02D0012B1F
:100E040007D014E0BB79103301229A400C4B1A60CE
:100E14000EE0BB79103301229A400A4B1A6007E0B6
:100E2400BB79103301229A40074B1A6000E000BFDF
:100E340000E000BF00BF0C37BD4680BC704700BF58
:100E440018000240180402401808024080B485B01B
:100E540000AF03460A46FB711346BB71FB79022BB4
:100E64002DD8BB790F2B2DD8FB79022B1CD0022B4C
:100E740027DC002B02D0012B0BD022E0144B1B6883
:100E8400DAB2BB79012101FA03F3DBB21340FB733D
:100E940018E0104B1B68DAB2BB79012101FA03F3A5
:100EA400DBB21340FB730DE00B4B1B68DAB2BB796A
:100EB400012101FA03F3DBB21340FB7302E000BF2C
:100EC40000E000BFFB7B18461437BD4680BC70476A
:100ED40010000240100402401008024080B582B0A5
:100EE40002AF00F027F800F005F90021002000F01F
:100EF40055F8002300930023012200210020FFF76E
:100F040097F9002200210020FFF73CFF0022002176
:100F14000020FFF737FF4FF47A7000F0F9F8012250
:100F240000210020FFF72EFF4FF47A7000F0F0F854
:100F3400ECE7000080B400AF164B1B68154A43F081
:100F440001031360144B1B68134A23F0010313605D
:100F5400114B1B68104A23F0020313600E4B1B68ED
:100F64000D4A23F0100313600B4B1B680A4A23F04D
:100F740020031360084B1B68074A23F040031360E7
:100F8400054B1B68044A43F08003136000BFBD4651
:100F940080BC7047003802400838024080B483B0F7
:100FA40000AF03460A46FB711346BB71BB791F2B86
:100FB4003BD8FB79032B37D801A252F823F000BFAA
:100FC400D50F0008EB0F00080110000817100008E7
:100FD400184B1B68BA79012101FA02F21146154A2D
:100FE4000B43136021E0144B1B68BA79012101FA09
:100FF40002F21146104A0B43136016E00F4B1B68B4
:10100400BA79012101FA02F211460C4A0B4313602A
:101014000BE00B4B1B68BA79012101FA02F211466D
:10102400074A0B43136000E000BF00BF0C37BD4606
:1010340080BC7047303802403438024040380240A7
:101044004438024080B483B000AF03460A46FB71C3
:101054001346BB71BB791F2B3FD8FB79032B3BD8BD
:1010640001A252F823F000BF7D100008951000087B
:10107400AD100008C51000081A4B1B68BA7901218D
:1010840001FA02F2D2431146164A0B40136024E0DF
:10109400154B1B68BA79012101FA02F2D2431146B9
:1010A400114A0B40136018E0104B1B68BA790121F8
:1010B40001FA02F2D24311460C4A0B4013600CE0D1
:1010C4000B4B1B68BA79012101FA02F2D243114693
:1010D400074A0B40136000E000BF00BF0C37BD4659
:1010E40080BC7047303802403438024040380240F7
:1010F4004438024080B500AF00F09AF8034B1B68F7
:10110400024A23F00403136000BF80BD10E000E036
:1011140080B582B000AF78600C4A7B680C4901FB53
:1011240003F313600B4B1B680A4A43F0010313607B
:1011340000BF084B1B6803F48033002BF9D000F088
:1011440077F800BF0837BD4680BD00BF14E000E05B
:1011540040420F0010E000E080B483B000AF78603C
:101164003960134B1B68124A23F001031360114BBF
:1011740000221A60104A7B684FF47A7101FB03F372
:1011840013600B4B1B680A4A43F0010313600B4ABC
:101194003B6813600A4B01221A70054B1B68044A12
:1011A40043F00203136000BF0C37BD4680BC704798
:1011B40010E000E018E000E014E000E0000000208F
:1011C4000400002080B483B000AF78603960134B12
:1011D4001B68124A23F001031360114B00221A60AA
:1011E400104A7B684FF47A7101FB03F313600B4BD5
:1011F4001B680A4A43F0010313600B4A3B681360FF
:101204000A4B02221A70054B1B68044A43F002037E
:10121400136000BF0C37BD4680BC704710E000E08F
:1012240018E000E014E000E00000002004000020CA
:1012340080B400AF0A4B1B68094A23F00203136011
:10124400074B1B68064A23F001031360054B002279
:101254001A60054B00221A6000BFBD4680BC70476F
:1012640010E000E014E000E018E000E080B483B097
:1012740000AF064B1A68064B1B68D31A7B607B6869
:1012840018460C37BD4680BC704700BF14E000E030
:1012940018E000E080B483B000AF044B1B687B60AF
:1012A4007B6818460C37BD4680BC704718E000E0E8
:1012B40080B582B000AF0023FB710A4B1B78012B71
:1012C40001D1FFF7B5FF084B1B68002B02D0064B7A
:1012D4001B689847054B1B680023FB7100BF083748
:1012E400BD4680BD040000200000002010E000E0A6
:0400000508000234B9
:00000001FF
